{
	"abi": [
		{
			"type": "constructor",
			"inputs": [],
			"stateMutability": "nonpayable"
		},
		{
			"type": "receive",
			"stateMutability": "payable"
		},
		{
			"type": "function",
			"name": "BLAST",
			"inputs": [],
			"outputs": [
				{
					"name": "",
					"type": "address",
					"internalType": "address"
				}
			],
			"stateMutability": "view"
		},
		{
			"type": "function",
			"name": "addReferrer",
			"inputs": [
				{
					"name": "referee",
					"type": "address",
					"internalType": "address"
				},
				{
					"name": "referrer",
					"type": "address",
					"internalType": "address"
				}
			],
			"outputs": [],
			"stateMutability": "nonpayable"
		},
		{
			"type": "function",
			"name": "claimAllGas",
			"inputs": [],
			"outputs": [],
			"stateMutability": "nonpayable"
		},
		{
			"type": "function",
			"name": "claimAllYield",
			"inputs": [],
			"outputs": [],
			"stateMutability": "nonpayable"
		},
		{
			"type": "function",
			"name": "getReferees",
			"inputs": [
				{
					"name": "referrer",
					"type": "address",
					"internalType": "address"
				}
			],
			"outputs": [
				{
					"name": "referees",
					"type": "address[]",
					"internalType": "address[]"
				}
			],
			"stateMutability": "view"
		},
		{
			"type": "function",
			"name": "getReferrer",
			"inputs": [
				{
					"name": "referee",
					"type": "address",
					"internalType": "address"
				}
			],
			"outputs": [
				{
					"name": "referrer",
					"type": "address",
					"internalType": "address"
				}
			],
			"stateMutability": "view"
		}
	],
	"bytecode": {
		"object": "0x608060405234801561001057600080fd5b50600080546001600160a01b0319163317815560408051634e606c4760e01b8152905173430000000000000000000000000000000000000292634e606c47926004808201939182900301818387803b15801561006b57600080fd5b505af115801561007f573d6000803e3d6000fd5b505050507343000000000000000000000000000000000000026001600160a01b0316637114177a6040518163ffffffff1660e01b8152600401600060405180830381600087803b1580156100d257600080fd5b505af11580156100e6573d6000803e3d6000fd5b50505050610462806100f96000396000f3fe6080604052600436106100595760003560e01c8063409a33ce146100655780634a9fefc71461007c578063645dd1fa146100d257806397d75776146100e7578063b94265b814610102578063d499bc851461012257600080fd5b3661006057005b600080fd5b34801561007157600080fd5b5061007a61014f565b005b34801561008857600080fd5b506100b5610097366004610371565b6001600160a01b039081166000908152600260205260409020541690565b6040516001600160a01b0390911681526020015b60405180910390f35b3480156100de57600080fd5b5061007a6101cf565b3480156100f357600080fd5b506100b56002604360981b0181565b34801561010e57600080fd5b5061007a61011d366004610393565b61020d565b34801561012e57600080fd5b5061014261013d366004610371565b6102df565b6040516100c991906103c6565b6000805460405163430021db60e11b815260048101929092526001600160a01b031660248201526002604360981b019063860043b6906044015b6020604051808303816000875af11580156101a8573d6000803e3d6000fd5b505050506040513d601f19601f820116820180604052508101906101cc9190610413565b50565b60008054604051634aa7d2f760e11b815260048101929092526001600160a01b031660248201526002604360981b019063954fa5ee90604401610189565b6000546001600160a01b0316331461022457600080fd5b6001600160a01b0382811660009081526002602052604090205416156102875760405162461bcd60e51b81526020600482015260146024820152732932b332b932b2903430b9903932b332b93932b960611b604482015260640160405180910390fd5b6001600160a01b0390811660008181526001602081815260408084208054938401815584528184209092018054969095166001600160a01b031996871681179095559382526002909352919091208054909216179055565b6001600160a01b03811660009081526001602090815260409182902080548351818402810184019094528084526060939283018282801561034957602002820191906000526020600020905b81546001600160a01b0316815260019091019060200180831161032b575b50505050509050919050565b80356001600160a01b038116811461036c57600080fd5b919050565b60006020828403121561038357600080fd5b61038c82610355565b9392505050565b600080604083850312156103a657600080fd5b6103af83610355565b91506103bd60208401610355565b90509250929050565b6020808252825182820181905260009190848201906040850190845b818110156104075783516001600160a01b0316835292840192918401916001016103e2565b50909695505050505050565b60006020828403121561042557600080fd5b505191905056fea26469706673582212201e0534986ddaa42628ca6acf723506df86e8aac3ccea1003fa61176622e7764f64736f6c63430008170033",
		"linkReferences": {}
	},
	"methodIdentifiers": {
		"BLAST()": "97d75776",
		"addReferrer(address,address)": "b94265b8",
		"claimAllGas()": "645dd1fa",
		"claimAllYield()": "409a33ce",
		"getReferees(address)": "d499bc85",
		"getReferrer(address)": "4a9fefc7"
	},
	"id": 0
}