{
	"abi": [
		{
			"type": "constructor",
			"inputs": [],
			"stateMutability": "nonpayable"
		},
		{
			"type": "function",
			"name": "allowance",
			"inputs": [
				{
					"name": "owner",
					"type": "address",
					"internalType": "address"
				},
				{
					"name": "spender",
					"type": "address",
					"internalType": "address"
				}
			],
			"outputs": [
				{
					"name": "",
					"type": "uint256",
					"internalType": "uint256"
				}
			],
			"stateMutability": "view"
		},
		{
			"type": "function",
			"name": "approve",
			"inputs": [
				{
					"name": "spender",
					"type": "address",
					"internalType": "address"
				},
				{
					"name": "value",
					"type": "uint256",
					"internalType": "uint256"
				}
			],
			"outputs": [
				{
					"name": "",
					"type": "bool",
					"internalType": "bool"
				}
			],
			"stateMutability": "nonpayable"
		},
		{
			"type": "function",
			"name": "balanceOf",
			"inputs": [
				{
					"name": "account",
					"type": "address",
					"internalType": "address"
				}
			],
			"outputs": [
				{
					"name": "",
					"type": "uint256",
					"internalType": "uint256"
				}
			],
			"stateMutability": "view"
		},
		{
			"type": "function",
			"name": "claimAllGas",
			"inputs": [],
			"outputs": [],
			"stateMutability": "nonpayable"
		},
		{
			"type": "function",
			"name": "decimals",
			"inputs": [],
			"outputs": [
				{
					"name": "",
					"type": "uint8",
					"internalType": "uint8"
				}
			],
			"stateMutability": "view"
		},
		{
			"type": "function",
			"name": "multiTransferToken",
			"inputs": [
				{
					"name": "_addresses",
					"type": "address[]",
					"internalType": "address[]"
				},
				{
					"name": "_amounts",
					"type": "uint256[]",
					"internalType": "uint256[]"
				}
			],
			"outputs": [],
			"stateMutability": "nonpayable"
		},
		{
			"type": "function",
			"name": "name",
			"inputs": [],
			"outputs": [
				{
					"name": "",
					"type": "string",
					"internalType": "string"
				}
			],
			"stateMutability": "view"
		},
		{
			"type": "function",
			"name": "symbol",
			"inputs": [],
			"outputs": [
				{
					"name": "",
					"type": "string",
					"internalType": "string"
				}
			],
			"stateMutability": "view"
		},
		{
			"type": "function",
			"name": "totalSupply",
			"inputs": [],
			"outputs": [
				{
					"name": "",
					"type": "uint256",
					"internalType": "uint256"
				}
			],
			"stateMutability": "view"
		},
		{
			"type": "function",
			"name": "transfer",
			"inputs": [
				{
					"name": "to",
					"type": "address",
					"internalType": "address"
				},
				{
					"name": "value",
					"type": "uint256",
					"internalType": "uint256"
				}
			],
			"outputs": [
				{
					"name": "",
					"type": "bool",
					"internalType": "bool"
				}
			],
			"stateMutability": "nonpayable"
		},
		{
			"type": "function",
			"name": "transferFrom",
			"inputs": [
				{
					"name": "from",
					"type": "address",
					"internalType": "address"
				},
				{
					"name": "to",
					"type": "address",
					"internalType": "address"
				},
				{
					"name": "value",
					"type": "uint256",
					"internalType": "uint256"
				}
			],
			"outputs": [
				{
					"name": "",
					"type": "bool",
					"internalType": "bool"
				}
			],
			"stateMutability": "nonpayable"
		},
		{
			"type": "event",
			"name": "Approval",
			"inputs": [
				{
					"name": "owner",
					"type": "address",
					"indexed": true,
					"internalType": "address"
				},
				{
					"name": "spender",
					"type": "address",
					"indexed": true,
					"internalType": "address"
				},
				{
					"name": "value",
					"type": "uint256",
					"indexed": false,
					"internalType": "uint256"
				}
			],
			"anonymous": false
		},
		{
			"type": "event",
			"name": "Transfer",
			"inputs": [
				{
					"name": "from",
					"type": "address",
					"indexed": true,
					"internalType": "address"
				},
				{
					"name": "to",
					"type": "address",
					"indexed": true,
					"internalType": "address"
				},
				{
					"name": "value",
					"type": "uint256",
					"indexed": false,
					"internalType": "uint256"
				}
			],
			"anonymous": false
		},
		{
			"type": "error",
			"name": "ERC20InsufficientAllowance",
			"inputs": [
				{
					"name": "spender",
					"type": "address",
					"internalType": "address"
				},
				{
					"name": "allowance",
					"type": "uint256",
					"internalType": "uint256"
				},
				{
					"name": "needed",
					"type": "uint256",
					"internalType": "uint256"
				}
			]
		},
		{
			"type": "error",
			"name": "ERC20InsufficientBalance",
			"inputs": [
				{
					"name": "sender",
					"type": "address",
					"internalType": "address"
				},
				{
					"name": "balance",
					"type": "uint256",
					"internalType": "uint256"
				},
				{
					"name": "needed",
					"type": "uint256",
					"internalType": "uint256"
				}
			]
		},
		{
			"type": "error",
			"name": "ERC20InvalidApprover",
			"inputs": [
				{
					"name": "approver",
					"type": "address",
					"internalType": "address"
				}
			]
		},
		{
			"type": "error",
			"name": "ERC20InvalidReceiver",
			"inputs": [
				{
					"name": "receiver",
					"type": "address",
					"internalType": "address"
				}
			]
		},
		{
			"type": "error",
			"name": "ERC20InvalidSender",
			"inputs": [
				{
					"name": "sender",
					"type": "address",
					"internalType": "address"
				}
			]
		},
		{
			"type": "error",
			"name": "ERC20InvalidSpender",
			"inputs": [
				{
					"name": "spender",
					"type": "address",
					"internalType": "address"
				}
			]
		}
	],
	"bytecode": {
		"object": "0x60806040523480156200001157600080fd5b506040518060400160405280600b81526020016a10d3d3915508141bda5b9d60aa1b815250604051806040016040528060048152602001630434e54560e41b81525081600390816200006491906200032e565b5060046200007382826200032e565b5050600580546001600160a01b03191633908117909155620000a391506b033b2e3c9fd0803ce800000062000112565b7343000000000000000000000000000000000000026001600160a01b0316634e606c476040518163ffffffff1660e01b8152600401600060405180830381600087803b158015620000f357600080fd5b505af115801562000108573d6000803e3d6000fd5b5050505062000422565b6001600160a01b038216620001425760405163ec442f0560e01b8152600060048201526024015b60405180910390fd5b620001506000838362000154565b5050565b6001600160a01b03831662000183578060026000828254620001779190620003fa565b90915550620001f79050565b6001600160a01b03831660009081526020819052604090205481811015620001d85760405163391434e360e21b81526001600160a01b0385166004820152602481018290526044810183905260640162000139565b6001600160a01b03841660009081526020819052604090209082900390555b6001600160a01b038216620002155760028054829003905562000234565b6001600160a01b03821660009081526020819052604090208054820190555b816001600160a01b0316836001600160a01b03167fddf252ad1be2c89b69c2b068fc378daa952ba7f163c4a11628f55a4df523b3ef836040516200027a91815260200190565b60405180910390a3505050565b634e487b7160e01b600052604160045260246000fd5b600181811c90821680620002b257607f821691505b602082108103620002d357634e487b7160e01b600052602260045260246000fd5b50919050565b601f82111562000329576000816000526020600020601f850160051c81016020861015620003045750805b601f850160051c820191505b81811015620003255782815560010162000310565b5050505b505050565b81516001600160401b038111156200034a576200034a62000287565b62000362816200035b84546200029d565b84620002d9565b602080601f8311600181146200039a5760008415620003815750858301515b600019600386901b1c1916600185901b17855562000325565b600085815260208120601f198616915b82811015620003cb57888601518255948401946001909101908401620003aa565b5085821015620003ea5787850151600019600388901b60f8161c191681555b5050505050600190811b01905550565b808201808211156200041c57634e487b7160e01b600052601160045260246000fd5b92915050565b61099580620004326000396000f3fe608060405234801561001057600080fd5b50600436106100a95760003560e01c8063645dd1fa11610071578063645dd1fa1461012357806370a082311461012d57806395d89b4114610156578063a9059cbb1461015e578063dd62ed3e14610171578063f3ad0dd8146101aa57600080fd5b806306fdde03146100ae578063095ea7b3146100cc57806318160ddd146100ef57806323b872dd14610101578063313ce56714610114575b600080fd5b6100b66101bd565b6040516100c391906106f7565b60405180910390f35b6100df6100da366004610762565b61024f565b60405190151581526020016100c3565b6002545b6040519081526020016100c3565b6100df61010f36600461078c565b610269565b604051601281526020016100c3565b61012b61028d565b005b6100f361013b3660046107c8565b6001600160a01b031660009081526020819052604090205490565b6100b661030b565b6100df61016c366004610762565b61031a565b6100f361017f3660046107ea565b6001600160a01b03918216600090815260016020908152604080832093909416825291909152205490565b61012b6101b8366004610869565b610328565b6060600380546101cc906108d5565b80601f01602080910402602001604051908101604052809291908181526020018280546101f8906108d5565b80156102455780601f1061021a57610100808354040283529160200191610245565b820191906000526020600020905b81548152906001019060200180831161022857829003601f168201915b5050505050905090565b60003361025d818585610409565b60019150505b92915050565b60003361027785828561041b565b610282858585610499565b506001949350505050565b600554604051634aa7d2f760e11b81523060048201526001600160a01b0390911660248201526002604360981b019063954fa5ee906044016020604051808303816000875af11580156102e4573d6000803e3d6000fd5b505050506040513d601f19601f82011682018060405250810190610308919061090f565b50565b6060600480546101cc906108d5565b60003361025d818585610499565b6005546001600160a01b0316331461033f57600080fd5b8281146103a65760405162461bcd60e51b815260206004820152602a60248201527f4c656e67746873206f662041646472657373657320616e6420416d6f756e7473604482015269081393d508115455505360b21b60648201526084015b60405180910390fd5b60005b83811015610402576103f98585838181106103c6576103c6610928565b90506020020160208101906103db91906107c8565b8484848181106103ed576103ed610928565b9050602002013561031a565b506001016103a9565b5050505050565b61041683838360016104f8565b505050565b6001600160a01b038381166000908152600160209081526040808320938616835292905220546000198114610493578181101561048457604051637dc7a0d960e11b81526001600160a01b0384166004820152602481018290526044810183905260640161039d565b610493848484840360006104f8565b50505050565b6001600160a01b0383166104c357604051634b637e8f60e11b81526000600482015260240161039d565b6001600160a01b0382166104ed5760405163ec442f0560e01b81526000600482015260240161039d565b6104168383836105cd565b6001600160a01b0384166105225760405163e602df0560e01b81526000600482015260240161039d565b6001600160a01b03831661054c57604051634a1406b160e11b81526000600482015260240161039d565b6001600160a01b038085166000908152600160209081526040808320938716835292905220829055801561049357826001600160a01b0316846001600160a01b03167f8c5be1e5ebec7d5bd14f71427d1e84f3dd0314c0f7b2291e5b200ac8c7c3b925846040516105bf91815260200190565b60405180910390a350505050565b6001600160a01b0383166105f85780600260008282546105ed919061093e565b9091555061066a9050565b6001600160a01b0383166000908152602081905260409020548181101561064b5760405163391434e360e21b81526001600160a01b0385166004820152602481018290526044810183905260640161039d565b6001600160a01b03841660009081526020819052604090209082900390555b6001600160a01b038216610686576002805482900390556106a5565b6001600160a01b03821660009081526020819052604090208054820190555b816001600160a01b0316836001600160a01b03167fddf252ad1be2c89b69c2b068fc378daa952ba7f163c4a11628f55a4df523b3ef836040516106ea91815260200190565b60405180910390a3505050565b60006020808352835180602085015260005b8181101561072557858101830151858201604001528201610709565b506000604082860101526040601f19601f8301168501019250505092915050565b80356001600160a01b038116811461075d57600080fd5b919050565b6000806040838503121561077557600080fd5b61077e83610746565b946020939093013593505050565b6000806000606084860312156107a157600080fd5b6107aa84610746565b92506107b860208501610746565b9150604084013590509250925092565b6000602082840312156107da57600080fd5b6107e382610746565b9392505050565b600080604083850312156107fd57600080fd5b61080683610746565b915061081460208401610746565b90509250929050565b60008083601f84011261082f57600080fd5b50813567ffffffffffffffff81111561084757600080fd5b6020830191508360208260051b850101111561086257600080fd5b9250929050565b6000806000806040858703121561087f57600080fd5b843567ffffffffffffffff8082111561089757600080fd5b6108a38883890161081d565b909650945060208701359150808211156108bc57600080fd5b506108c98782880161081d565b95989497509550505050565b600181811c908216806108e957607f821691505b60208210810361090957634e487b7160e01b600052602260045260246000fd5b50919050565b60006020828403121561092157600080fd5b5051919050565b634e487b7160e01b600052603260045260246000fd5b8082018082111561026357634e487b7160e01b600052601160045260246000fdfea2646970667358221220dded67e7d10f667ef3101c09c6032e1ce68c221e01463d98450096156c0f572264736f6c63430008170033",
		"linkReferences": {}
	},
	"methodIdentifiers": {
		"allowance(address,address)": "dd62ed3e",
		"approve(address,uint256)": "095ea7b3",
		"balanceOf(address)": "70a08231",
		"claimAllGas()": "645dd1fa",
		"decimals()": "313ce567",
		"multiTransferToken(address[],uint256[])": "f3ad0dd8",
		"name()": "06fdde03",
		"symbol()": "95d89b41",
		"totalSupply()": "18160ddd",
		"transfer(address,uint256)": "a9059cbb",
		"transferFrom(address,address,uint256)": "23b872dd"
	},
	"id": 3
}